:400000000080002011000000550100005501000080B500AF47F2BC63C4F2000344F2FA62C4F2000212681A6000F098F810B5054C237833B9044810B10448AFF30080012176
:40004000217010BD1881FF1F00000000980C000008B5064B1BB106480649AFF300800648016811B1054A02B1904708BD00000000980C00001C81FF1F0881FF1F0000000011
:4000800080B582B000AF4FF002004FF001014FF4804241F6FF7300F03DFB0346FB7100F015FD03463B7100F011FD03467B7100F00DFD0346BB713A797B7910464FF0020145
:4000C0001A464FF0220300F03DFD7A79BB7910464FF002011A464FF0220300F033FDBA793B7910464FF002011A464FF0020300F029FD3A7948F23413C1F6FF739BB2104636
:4001000046F218511A4600F05BFD7A7948F23413C1F6FF739BB2104646F216511A4600F04FFDBA7948F23413C1F6FF739BB2104646F214511A4600F043FD3B79FA791046D1
:40014000194600F04FFCFB7918464FF0010100F06FFBFEE780B400AFFEE700BF80B586B000AF40F20103C0F200037B6140F6F043C0F200033B6140F20103C0F200037B61AA
:4001800040F6F043C0F200033B613BE03B691B68FB603B695B68BB603B699B683B604FF000037B600FE0FB681A68BB681A60BB6803F10403BB60FB6803F10403FB607B68C1
:4001C00003F104037B607A683B689A42EBD13B69DB683B604FF000037B600BE0BB684FF000021A60BB6803F10403BB607B6803F104037B607A683B689A42EFD13B6903F1F9
:4002000010033B617B69002B0CBF00230123DBB27A6902F1FF327A61002BB7D100F004FDFFF72EFFFEE700BF80B582B000AF4EF60C53CEF200034FF48062C0F2FA521A60FB
:400240004EF61453CEF200034EF61452CEF20002126842F400721A604FF000037B6019E07B68032B07D840F20003C0F200037A6853F8223003E040F25513C0F2000348F22D
:400280000002C1F6FF72796842F821307B6803F101037B607B682F2BE2D947F2BC63C4F200031B78DAB248F20413C1F6FF731A704EF60853CEF2000348F20002C1F6FF7200
:4002C0001A6000F045F900F07BFA48F20013C1F6FF734FF000021A6007F10807BD4680BD80B582B000AF7860396078684FF000013A6800F0C8FC07F10807BD4680BD00BF76
:4003000080B584B000AFF860B9607A60F868B9687A6800F0AFFC07F11007BD4680BD00BF80B483B000AF0346FB71FEE780B487B000AF786039604FF000033B614FF00003F3
:400340007B612CE07B694FEA83037A68D3181B68BB60BB68FB73BB6823F0FF03BB6017E03B694FEA43033A68D3181B781A46BB68D3183A694FEA420239688A1852781A7044
:400380003B6903F101033B61FB7B03F1FF33FB73FB7B002BE4D17B6903F101037B617B691B2BCFD907F11C07BD4680BC704700BF80B582B000AF4FF48143C4F200034FF036
:4003C00033021A8044F28203C4F200034FF018021A704FF48643C4F200034FF002021A704FF040234FF008021A704FF48443C4F200034FF003021A7044F2A163C4F200034C
:400400004FF48472C4F600121278D2B21A7044F22223C4F200034FF008021A8044F22023C4F2000341F251221A804FF00003FB704FF019037B6019E0FB784FEA4303DAB23C
:4004400044F22523C4F200031B78DBB203F00103DBB21343DBB203F00303FB704FF4F07000F09AF97B6803F1FF337B607B68002B02D0FB78032BDFD17B68002B03D14FF0FE
:400480000300FFF74DFF44F20403C4F200034FF480721A8044F20403C4F200034FF007021A7044F20603C4F200034FF000021A7044F20803C4F200034FF048021A7044F264
:4004C0000403C4F200034FF000021A7044F20103C4F200034FF002021A7044F2A233C4F2000344F2A232C4F200021278D2B242F00102D2B21A7007F10807BD4680BD00BFD4
:4005000080B483B000AF40F2CF13C4F600131B78FB7145F66E03C4F20003FA7902F00702D2B21A7045F66F03C4F20003FA794FEA1212D2B21A7045F67603C4F200034FF0F4
:4005400044021A7007F10C07BD4680BC704700BF80B582B000AF72B644F2E863C4F2000344F2E862C4F200021278D2B242F00402D2B21A704FF00003FB7119E0FA79134674
:400580004FEA43039B184FEA430340F69C42C0F200029B183B603B681A683B689B889BB210461946FFF79CFEFB7903F10103FB71FB79072BE2D94FF090404FF07001C4F645
:4005C0000001FFF7B3FE4FF4EC40C4F200004FF00401FFF785FE45F20303C4F2010345F20302C4F201021278D2B242F00202D2B21A7045F21303C4F2010345F21302C4F22A
:4006000001021278D2B242F00202D2B21A7044F2A033C4F2000344F2A032C4F200021278D2B242F04002D2B21A7044F2C233C4F2000344F2C232C4F200021278D2B242F04D
:400640001002D2B21A704FF4A240C4F200004FF4BD61C4F600014FF00A02FFF751FE45F2C010C4F2000040F2F451C4F600014FF00A02FFF745FE45F2F210C4F200004FF42E
:40068000C061C4F600014FF00802FFF739FE45F23010C4F200004FF4C161C4F600014FF00A02FFF72DFE44F22233C4F2000344F22232C4F200021278D2B242F00802D2B2DB
:4006C0001A704FF49043C4F200034FF001021A70FFF76EFE4FF49043C4F200034FF081021A704FF00403C4F208034FF001021A70FFF706FF44F2B030C4F2000044F2A031B7
:40070000C4F200014FF00E02FFF7FAFD07F10807BD4680BD80B584B002AFF871B971BA807B8048F20C13C1F6FF734FF000021A7048F20C13C1F6FF731978FA79BB794FF057
:40074000000000904FF000000190084611461A464FF0000300F068F948F20C13C1F6FF731978BA887B88084611461A4600F0F6F848F20C13C1F6FF731B7818464FF0020191
:4007800000F0B4F848F20C13C1F6FF731B78184607F10807BD4680BD0230800800F0058000BF013800467FF4FCAF7047EFF3108072B6704780F31088704700BFAFF30080AD
:4007C00080B483B000AF48F21113C1F6FF734FF07F021A7048F21013C1F6FF734FF080021A704FF07F03FB710FE0FB794FEAC30303F1804303F5F043FA7902F1FF32D2B2B5
:400800001A70FB7903F1FF33FB71FB79002BECD1FB794FEAC30303F1804303F5F0434FF000021A7007F10C07BD4680BC704700BF80B485B000AF02460B46FA71BB714FF065
:400840000103FB60FB79172B48D8BB79002B16D0FB794FEA031247F21003C4F20003D318FA794FEA021147F21002C4F200028A181278D2B242F02002D2B21A7015E0FB790F
:400880004FEA031247F21003C4F20003D318FA794FEA021147F21002C4F200028A181278D2B222F02002D2B21A70FB794FEA031247F21003C4F20003D318FA794FEA0211D5
:4008C00047F21002C4F200028A181278D2B242F00102D2B21A704FF00003FB60FB68184607F11407BD4680BC704700BF80B485B000AF02460B46FA71BB714FF00103FB60F6
:40090000FB79172B22D8FB794FEA031247F21003C4F20003D3181B78DBB223F00E03FB72FB794FEA031247F21003C4F20003D318BA7902F00702D2B24FEA4202D1B2FA7ACC
:400940000A43D2B21A704FF00003FB60FB68184607F11407BD4680BC704700BF80B485B000AF13460246FA710A46BA807B804FF00103FB60BA8841F6FF739A4202D14FF4D2
:400980000053BB807A8841F6FF739A4202D14FF400537B80FB79172B1CD8FB794FEAC30303F1804303F5EC4303F10403BB60BB68BA881A80FB794FEAC30303F1804303F58C
:4009C000EC4303F10603BB60BB687A881A804FF00003FB60FB68184607F11407BD4680BC704700BF80B485B000AF02460B46FA71BB714FF00103FB60FB79172B0CD8FB79D7
:400A00004FEA031247F21003C4F20003D318BA795A724FF00003FB60FB68184607F11407BD4680BC704700BF80B485B000AFF871B9717A713B714FF00103FB60FB79172BBD
:400A40003CD8FB794FEAC30303F1804303F5EC43BA7902F07F02D1B27A794FEAC212D2B20A43D2B21A70FB794FEAC30303F1804303F5EC433A7E4FEA0212D1B23A7902F08B
:400A80000F02D2B20A43D2B25A70FB794FEAC30303F1804303F5EC433A7F02F00F02D2B29A70FB794FEAC30303F1804303F5EC434FF00002DA704FF00003FB60FB68184631
:400AC00007F11407BD4680BC704700BF80B582B000AF4FF0FF03FB71FFF768FE0346BB7148F21013C1F6FF731B78182B20D948F21113C1F6FF731B78FB7148F21013C1F6AB
:400B0000FF731B7803F1FF33DAB248F21013C1F6FF731A70FB794FEAC30303F1804303F5F0431B78DAB248F21113C1F6FF731A70BB791846FFF73EFEFB79184607F10807CC
:400B4000BD4680BD80B485B000AFF871B980BA71FB704FF00103FB60FB795BB2002B27DBBB8823F47F6323F00F039BB2002B1FD1FB794FEAC30303F1804303F5F043BB6060
:400B8000BB68BA881A80FB794FEAC30303F1804303F5F043BA799A70FB794FEAC30303F1804303F5F043FA78DA704FF00003FB60FB68184607F11407BD4680BC704700BF6D
:400BC00080B485B000AF13460246FA710A46BA807B804FF00103FB60FB795BB2002B1CDBFB794FEAC30303F1804303F5F04303F10403BB60BB68BA881A80FB794FEAC3032E
:400C000003F1804303F5F04303F10603BB60BB687A881A804FF00003FB60FB68184607F11407BD4680BC704738B50E4D0E4B0024E81A8510AC4205D00B4951F824209047BD
:400C40000134F7E700F042F80849094A541AA5100024AC4205D0054B53F8240080470134F7E738BDD80C0000D80C0000D80C0000E00C000010B50023934203D0CC5CC45493
:400C80000133F9E710BD82180346934202D003F8011BFAE77047000000000000C8490040190010510040200040510040300000000140001000140140000800400140000AB5
:400CC000004C01400002005001402000F8B500BFF8BC08BC9E4670475100000029020000F8B500BFF8BC08BC9E4670472D000000000D00000881FF1F100000002800000021
:400D000000000000FF000000807F000001000000000000000000000000000000000000000000000000000000000000000000000000000000000000000000000000000000B4
:400D40000000000000000000000000000000000000000000000000000000000000000000000000000000000000000000000000000000000000000000000000000000000073
:400D80000000000000000000000000000000000000000000000000000000000000000000000000000000000000000000000000000000000000000000000000000000000033
:400DC00000000000000000000000000000000000000000000000000000000000000000000000000000000000000000000000000000000000000000000000000000000000F3
:400E000000000000000000000000000000000000000000000000000000000000000000000000000000000000000000000000000000000000000000000000000000000000B2
:020000040003F7
:0200000480007A
:40000000075200400364004062000140340101403F02014033030140340401403D0501400207014001090140371401401915014038160140171701403918014017190140E1
:40004000041B014002400140094101400742014002430140034701400B4801400C4901400A4C0140024D014006500140025101400110040C18081C08600464047C0C800FB3
:40008000823885720010051807210C080D800E0313751406151F160817601802194A1B011E0F28082A052C202D1F2F2030073180320B3378341035063620370139203A0A97
:4000C0003B083E503F504035410445E0460B470C481649FF4AFF4BFF4EF04F44500C5401580459045A045B045F0166C06A406B028C0C8D048E118F0A9203941C9508960274
:4001000097049A10A009A101A210A410A50CA60CA90CAC14B01FB102B301B50CB61FBF04C003C505C601C805C9FFCA07CBFFCC40CD20CEF0CF05D008D804D904DA04DF0104
:40014000E040E1A8E240E32000400340044807100A220B040E900F0411801208158A184019A01A301B011E801F80210D22492308248027242B012FA8310832113704380834
:400180003A403F4040404108470849814A804F04500451405540564059055A805B10C089C277C4B3CAE8CC47CE1AD043D208D60F0203049C089C0F011009124414071638EB
:4001C00018031E0320802412264428032E032F013080321C3301340336603E403F044024410642054401450C460E480549FF4AFF4BFF4C624DA04EF04F41500C54185804A6
:4002000059045A045B045F016640670269106A306B106D106E106F1284029E02A001A802AE02B201B602B880BE04D804DF0103100428050109400C400D200E100F40100164
:400240001110128014011594170519841D831E101F1026082D80300432083F8045A247104D104E014F0857405F02640466808712908097409B049D049F40A280A728AD206B
:40028000AF20C074C2F1C4FBCA10CE10D0B0D230D680D830080114011C01280134013A083E1058045F01801C810C82218313842785048618883F89038D018E049108922357
:4002C000943C95139602970C990C9A409E40A010A10FA310A408A502A818A91FAC04AF13B21FB30FB440B638B71CBA08BB88BE10D602D711D804D904DB04DF01001001101A
:4003000004920710084009480C010D0A0E010F0812081402172A181019201D081E0524022540260827102C412D14360837223C013E183F405A035D206C146F297608772ABB
:4003400080018148908091049210934094289590960298029C409E809F11A102A304A540A728AB40AC02AF40C0F2C2F5C4F2CAF0CCE0CEF0D620AE84E820E82041054406CB
:4003800049FF4AFF4BFF4CEF4D554E604F48501C52015A095B095D995F0161086308650867086850690A6A406BA86CC06E406FA8C104C406C5EDC60CC70FC817C9FFCAFF82
:4003C000CBFFCCEACD55CEE2CF48D01CDA09DB09DD99DF01E108E308E508E708E850E90AEA40EBA8ECC0EE40EFA8470248094C084F25558056085C01600161806608670574
:4004000068016B027A087E08A208A310B440D080D22CD680D870DE24E001EC044104440246B0480849FF4AFF4BFF4CEF4D554E604F48501C5A095D095F016108630865082A
:4004400067086850690A6A406BA86CC06E406FA8C105C404C5C0C6DEC70FC81EC9FFCAFFCBFFCCEACD55CEE2CF48D01CD201DA09DB09DD99DF01E108E308E508E708E85003
:40048000E90AEA40EBA8ECC0EE40EFA84040440847024801490151A85710590161A868016B027A087E0880088208D0A1D208D601D80EDE24E004E203E60C41044402450B20
:4004C000460B480549FF4AFF4BFF4CEF4D554E104F48501C5A0A5D095F0161086308650867086850690A6A406BA86CC06E406FA8C105C402C5C0C6DEC70FC81EC9FFCAFF90
:40050000CBFFCCEACD55CE92CF48D01CD201DA0BDB0BDD99DF01E108E308E508E708E850E90AEA40EBA8ECC0EE40EFA8400844084702480149014F0851A85780590161A8BF
:4005400068016B027B407D08810483C0D0A4D208D601D80EDE41E203E608A808B704E001EA403F40CE200120060863049304AF44C0C0D840EA40EE4000083D20AA08AD20C9
:40058000C010CE20ECC0A510B0049802B002E804020105108110820184088780A510C0C0E020E2C0E6100704578074088304A008A380A910C080D440DE20E080EC201384E6
:4005C000144078027D208380844087049802C40EDE038110A510000108010A0111011B011D0103C01002000010000C1010001000000000000400000004000400000000001D
:400600000C00000000000000080000000800080000000000000000000000000000000000000000000000000000000000000000000000000000000000000000000000000096
:40064000000000000000000000000000000000000000000000000000000000000000000000000000000000000000000000000000000000000000000000000000000000007A
:40068000000000000000000000000000000000000000000000000000000000000000000000000000000000000000000000000000000000000000000000000000000000003A
:4006C00000000000000000000000000000000000000000000000000000000000000000000000000000000000000000000000000000000000000000000000000000000000FA
:4007000000000000000000000000000000000000000000000000000000000000000000000000000000000000000000000000000000000000000000000000000000000000B9
:0200000490006A
:0400000000004005B7
:0200000490105A
:04000000BC90ACAF55
:0200000490303A
:020000009E243C
:0200000490402A
:4000000000000000000000000000000000000000000000000000000000000000000000000000000000000000000000000000000000000000000000000000000000000000C0
:400040000000000000000000000000000000000000000000000000000000000000000000000000000000000000000000000000000000000000000000000000000000000080
:400080000000000000000000000000000000000000000000000000000000000000000000000000000000000000000000000000000000000000000000000000000000000040
:4000C0000000000000000000000000000000000000000000000000000000000000000000000000000000000000000000000000000000000000000000000000000000000000
:0200000490501A
:0C00000000012E12706900012E1A0E8DF6
:00000001FF